:02000000912845
:0E0006008312031323088A00220882000800D8
:1000140003208A110A128000840AA20A0319A30A7F
:08002400F003031D0A28080087
:10002C0083120313A001A10180302106F00080305F
:10003C007002031D23283230200203183E280614B8
:10004C000630FC00B530FD00FD0B2A28FC0B2A28DD
:10005C000000000006102F30FC003A30FD00FD0BB4
:10006C003528FC0B35280000A00A0319A10A1A2810
:02007C0008007A
:10007E0083120313A001A10180302106F00080300D
:10008E007002031D4C283230200203186728061414
:10009E000330FC001230FD00FD0B5328FC0B5328DF
:1000AE00000006103230FC00DD30FD00FD0B5D2837
:1000BE00FC0B5D2800000000A00A0319A10A4328CA
:0200CE00080028
:1000D00083120313A001A10180302106F0008030BB
:1000E0007002031D75283230200203189028061470
:1000F0000430FC00E430FD00FD0B7C28FC0B7C2868
:10010000000006103130FC000B30FD00FD0B86288E
:10011000FC0B862800000000A00A0319A10A6C2825
:020120000800D5
:1001220083120313A001A1018316860183128601A3
:0A0132003F206820162099289D2820
:02400E004A2F37
:00000001FF
