:020000006E2967
:1000060083120313F801F9011030FC00710DF80D8D
:10001600F90D7408F8027508031C750FF902031828
:100026001B287408F80775080318750FF9070310DD
:0A003600F00DF10DFC0B0928080085
:100040000E3083120313FD00FD0B2428000008006E
:100050008316031398182E280000282883123F08BF
:0400600099000800FB
:1000640083120313C20105304202031840284208D8
:100074004107840020308000C20A35284208410725
:1000840084008001C20342084107C3000A30F4001F
:10009400F5013F08F0004008F10003207808F00063
:1000A4007908F1003030F0074308840070088000BC
:1000B4000A30F400F5013F08F0004008F100032085
:1000C4007008BF007108C00000307106031D6C2861
:1000D40000307006031D6F287128C20345280800EC
:0E00E4008312031332088A00310882000800DC
:1000F200831603139816903083129800831687177D
:10010200071383128C1E88281A08F0008228080020
:10011200831203139F01C0309F042009F00070086E
:1001220083169F051F179F1783123608F000F00DE4
:100132007010F00D7010F00D701070089F041F14F5
:1001420020201F151F1DA7280000A3281F101E080E
:10015200F100F00183161E08F0040030F1040800DB
:10016200FF3083120313B300FF30B400FF30B50039
:10017200FF309F01C0309F042009F00070088316F1
:0C0182009F051F179F1783121F14080011
:10018E00831203133608F2007208F100F20A3708E0
:10019E00F000B70A700884000008F00071088400AF
:1001AE00700880007108840000080319DF28CB282E
:0601BE003608F000080005
:1001C40083120313B801360884000008B700370807
:1001D400003A0319F7283708BF002820B80A38085E
:0C01E400360784000008B700E928080076
:1001F00083120313BB01BC013608BD003708BE00E3
:1002000080303706F00080307002031D092900306D
:100210003602031817290130BB000030BC00360835
:10022000003CBD003708031C013EBE01BE023D0874
:10023000BF003E08C0003808C10032200630B900B7
:100240000030BA003A08003C031D28293908003C58
:100250000318432939083807F20001303902F00049
:100260000030031C013E3A02F10070083807840098
:100270000008F00072088400700880000130B902A4
:10028000031CBA03222938088400203080003B0870
:100290003C0403196129B901BA01390838078400FF
:1002A0000008203A031D5829B90A0319BA0A4D2932
:1002B0000130B902031CBA033908380784002D3015
:0402C00080000800B2
:1002C40072208A110A128000840AB10A0319B20A40
:0802D400F003031D622908007C
:1002DC00C0218316031386018312860133308316E3
:1002EC00990018157920B1200330B60089207008C8
:1002FC008312AB007108AC007008B6007108B7002F
:10030C002D30B800F8202130B600E2202D30B60098
:10031C00E2200A30B600E2202D30B6002A30B700B9
:10032C00C72006140B30FB002630FC005D30FD00AE
:10033C00FD0B9E29FC0B9E29FB0B9E290000000047
:06034C0006107A29A82921
:1003800020308400113083120313F000AE30B1002E
:080390000130B20062210800F7
:02035C000F345C
:10035E00563461346C347534653420343A34203478
:02036E00003459
:02037000003457
:04037200003400341F
:080376000034003400340034AF
:02400E004A2F37
:00000001FF
