:02000000532982
:1000060083120313F801F9011030FC00710DF80D8D
:10001600F90D7408F8027508031C750FF902031828
:100026001B287408F80775080318750FF9070310DD
:0A003600F00DF10DFC0B0928080085
:1000400083120313B8010530380203182E2838082C
:100050003707840020308000B80A23283808370783
:1000600084008001B80338083707B9000A30F4006B
:10007000F5013508F0003608F10003207808F0009B
:100080007908F1003030F0073908840070088000EA
:100090000A30F400F5013508F0003608F1000320BD
:1000A0007008B5007108B60000307106031D5A28AB
:1000B00000307006031D5D285F28B8033328080050
:1000C00083160313981866280000602883123508E9
:0400D000990008008B
:0E00D4008312031324088A0023088200080008
:1000E2000E3083120313FD00FD0B7528000008007B
:1000F200FF3083120313A900FF30AA00FF30AB00C8
:10010200FF309F01C0309F042009F0007008831661
:0C0112009F051F179F1783121F14080081
:10011E0083120313B101B2012C08B3002D08B400F1
:10012E0080302D06F00080307002031DA0280030B4
:10013E002C020318AE280130B1000030B2002C089A
:10014E00003CB3002D08031C013EB401B402330879
:10015E00B5003408B6002E08B70020200630AF00D8
:10016E000030B0003008003C031DBF282F08003CB3
:10017E000318DA282F082E07F20001302F02F000A4
:10018E000030031C013E3002F10070082E0784007F
:10019E000008F00072088400700880000130AF0281
:1001AE00031CB003B9282E088400203080003108CB
:1001BE0032040319F828AF01B0012F082E0784006E
:1001CE000008203A031DEF28AF0A0319B00AE428ED
:1001DE000130AF02031CB0032F082E0784002D3010
:0401EE008000080085
:1001F200831203139F01C0309F042009F00070088E
:1002020083169F051F179F1783122C08F000F00D0D
:100212007010F00D7010F00D701070089F041F1414
:1002220071201F151F1D1729000013291F101E08FA
:10023200F100F00183161E08F0040030F1040800FA
:1002420083120313AE012C0884000008AD002D08B0
:10025200003A031936292D08B5006020AE0A2E088F
:0C0262002C0784000008AD0028290800CB
:10026E006A208A110A128000840AA30A0319A40ABA
:08027E00F003031D37290800FD
:1002860083160313981690308312980083168717E7
:10029600071383128C1E52291A08F0004C290800F5
:1002A6009021831603138701831287017920333047
:1002B60083169900181543210330AC00F920700805
:1002C6008312A1007108A2007008AC007108AD008D
:1002D6002530AE008F202530AC0021210D30B50031
:1002E60060200A30B50060200630FB001330FC00A9
:1002F600AD30FD00FD0B7D29FC0B7D29FB0B7D2917
:08030600000000005F298629B8
:1003200020308400033083120313F0008C30A300CC
:080330000130A4003721080090
:020318000F34A0
:04031A000034003477
:02400E004A2F37
:00000001FF
