:020000003B2A99
:0E000600213083120313FD00FD0B07280800B4
:100014000F3083120313FC004730FD00FD0B102842
:0A002400FC0B10280000000008008B
:06002E00000000000800C4
:1000340083120313BE1B20288613212886173E1B18
:100044002528061326280617BE1A2A2886122B28C6
:1000540086163E1A2F280612302806162A18342827
:10006400061535280611861517208611BE193C2859
:1000740086133D2886173E19412806134228061781
:10008400BE1846288612472886163E184B280612A4
:100094004C2806162A1850280615512806118615CC
:1000A400172086112A1C58280A20592803200800E2
:1000B40083120313F801F9011030FC00710DF80DDF
:1000C400F90D7408F8027508031C750FF90203187A
:1000D40072287408F80775080318750FF9070310D8
:0A00E400F00DF10DFC0B6028080080
:1000EE0083120313BC0105303C02031885283C081B
:1000FE003B07840020308000BC0A7A283C083B076E
:10010E0084008001BC033C083B07BD000A30F400AC
:10011E00F5013908F0003A08F1005A207808F0008D
:10012E007908F1003030F0073D0884007008800037
:10013E000A30F400F5013908F0003A08F1005A20AF
:10014E007008B9007108BA0000307106031DB1289D
:10015E0000307006031DB428B628BC038A28080098
:10016E000E3083120313FD00FD0BBB2800000800A8
:0E017E00831203132F088A002E088200080047
:10018C00831203132A103908BE001A202A140800FF
:10019C00E028803083120313B000F328C030B00085
:1001AC00F3289430B000F328D430B000F32880301A
:1001BC00B000F328831203133008013A0319CF2837
:1001CC003008023A0319D4283008033A0319D72807
:1001DC003008043A0319DA28DD283103F00030081E
:1001EC00F0077008B0007008BE001A202A10B30186
:1001FC00330832078400000803190C29330832072E
:10020C0084000008B900C620B30AFE282A1408008E
:10021C00831203139F01C0309F042009F000700863
:10022C0083169F051F179F1783123008F000F00DDF
:10023C007010F00D7010F00D701070089F041F14EA
:10024C00B7201F151F1D2C29000028291F101E0860
:10025C00F100F00183161E08F0040030F1040800D0
:10026C0083120313FB01FA01F9018030F800F10C41
:10027C00F00C031C4A297408F90775080318750F4C
:10028C00FA070318FB0A0310F01F52297408FA0727
:10029C0075080318750FFB07FB0CFA0CF90CF80C1E
:1002AC00031C3D297B08F3007A08F2007908F10061
:0602BC007808F0000800C4
:1002C20083120313B501B6013008B7003108B80034
:1002D20080303106F00080307002031D7229003038
:1002E2003002031880290130B5000030B600300812
:1002F200003CB7003108031C013EB801B8023708C0
:10030200B9003808BA003208BB0077200630B300C3
:100312000030B4003408003C031D91293308003C2E
:100322000318AC2933083207F20001303302F0001F
:100332000030031C013E3402F100700832078400D1
:100342000008F00072088400700880000130B302D7
:10035200031CB4038B293208840020308000350846
:1003620036040319CA29B301B401330832078400E1
:100372000008203A031DC129B30A0319B40AB62999
:100382000130B302031CB4033308320784002D305A
:0403920080000800DF
:10039600FF3083120313AB00FF30AC00FF30AD001B
:1003A600FF309F01C0309F042009F00070088316BB
:0C03B6009F051F179F1783121F140800DB
:1003C200BF208A110A128000840AAE0A0319AF0AFA
:0803D200F003031DE1290800FE
:1003DA008316031386110611061286120613861354
:1003EA0083128611061186130613861206120A2034
:1003FA000A200A20861606168615172086110A2054
:10040A008615172086110A208615172086110A20BC
:10041A0006128615172086110A20861517208611BE
:10042A00861286178615172086110A208613061645
:10043A0086151720861106128615172086110A209E
:10044A0086151720861106168615172086110A208A
:10045A00061286151720861186170617861606169F
:0C046A008615172086110A202A140800AD
:100476008822ED21CB210330B0000E21F430F400A8
:100486000130F50036210A30F4007008F2007108D8
:10049600F30074080319542AF30CF20CF313FF3E0D
:1004A6004D2A7208A1007308A2007208B0007308F2
:1004B600B1002330B20061210130BE001A200130A4
:1004C600B0000130B1002330B200CE200630FB0070
:1004D6001330FC00AD30FD00FD0B6F2AFC0B6F2ABC
:0C04E600FB0B6F2A000000003E2A782A61
:10051000203084000A3083120313F0007E30AE00D6
:080520000230AF00E1210800E8
:0204FC000F34BB
:0404FE000034003492
:0E050200543465346D3470343A34203400348F
:02400E004A2F37
:00000001FF
