:02000000722864
:0E000600831203133A088A00390882000800AA
:1000140003208A110A128000840AB90A0319BA0A51
:08002400F003031D0A28080087
:10002C0083120313071087102108F000F00D7010D5
:10003C007008233E8400000886001A30FC00F8305B
:0E004C00FD00FD0B2728FC0B272800000800F4
:10005A0083120313071487142008F000F00D7010A0
:10006A007008233E8400000886001A30FC00F8302D
:0E007A00FD00FD0B3E28FC0B3E280000080098
:1000880083120313071087143708F000F00D70105F
:100098007008233E8400000886001A30FC00F830FF
:0E00A800FD00FD0B5528FC0B5528000008003C
:1000B60083120313071487103808F000F00D701030
:1000C6007008233E8400000886001A30FC00F830D1
:0E00D600FD00FD0B6C28FC0B6C2800000800E0
:1000E40083120313A001A101A2013F30A300A401C4
:1000F4000630A500A6015B30A700A8014F30A90077
:10010400AA016630AB00AC016D30AD00AE017D30AC
:10011400AF00B0010730B100B2017F30B300B401C9
:100124006F30B500B601B701B801831686018701A7
:100134008312860187010230A0000230B800023029
:10014400B7000230A100A20180302206F000803006
:10015400193A70020318B428162044205B202D207D
:08016400A20AA6289D28B52877
:02400E007A3BFB
:00000001FF
